{
  "_format": "hh-sol-artifact-1",
  "contractName": "EmitWinner",
  "sourceName": "contracts/EmitWinnerChallenge.sol",
  "abi": [
    {
      "inputs": [],
      "stateMutability": "payable",
      "type": "constructor"
    },
    {
      "inputs": [
        {
          "internalType": "address",
          "name": "tokenOwner",
          "type": "address"
        },
        {
          "internalType": "uint256",
          "name": "_amount",
          "type": "uint256"
        }
      ],
      "name": "drop",
      "outputs": [],
      "stateMutability": "nonpayable",
      "type": "function"
    },
    {
      "stateMutability": "payable",
      "type": "receive"
    }
  ],
  "bytecode": "0x608060405273a56afb65df413f36f9c753c2e8e56249a44ab8126000806101000a81548173ffffffffffffffffffffffffffffffffffffffff021916908373ffffffffffffffffffffffffffffffffffffffff16021790555073873289a1ad6cf024b927bd13bd183b264d274c68600160006101000a81548173ffffffffffffffffffffffffffffffffffffffff021916908373ffffffffffffffffffffffffffffffffffffffff16021790555060008054906101000a900473ffffffffffffffffffffffffffffffffffffffff16600260006101000a81548173ffffffffffffffffffffffffffffffffffffffff021916908373ffffffffffffffffffffffffffffffffffffffff1602179055506105238061011d6000396000f3fe6080604052600436106100225760003560e01c80638d0f8cef1461002e57610029565b3661002957005b600080fd5b34801561003a57600080fd5b506100556004803603810190610050919061034d565b610057565b005b6000600260009054906101000a900473ffffffffffffffffffffffffffffffffffffffff1673ffffffffffffffffffffffffffffffffffffffff166323b872dd8430856040518463ffffffff1660e01b81526004016100b8939291906103ab565b6020604051808303816000875af11580156100d7573d6000803e3d6000fd5b505050506040513d601f19601f820116820180604052508101906100fb919061041a565b90508061013d576040517f08c379a0000000000000000000000000000000000000000000000000000000008152600401610134906104a4565b60405180910390fd5b600260009054906101000a900473ffffffffffffffffffffffffffffffffffffffff1673ffffffffffffffffffffffffffffffffffffffff1663095ea7b3600160009054906101000a900473ffffffffffffffffffffffffffffffffffffffff16846040518363ffffffff1660e01b81526004016101bc9291906104c4565b6020604051808303816000875af11580156101db573d6000803e3d6000fd5b505050506040513d601f19601f820116820180604052508101906101ff919061041a565b50600160009054906101000a900473ffffffffffffffffffffffffffffffffffffffff1673ffffffffffffffffffffffffffffffffffffffff16638d0f8cef60008054906101000a900473ffffffffffffffffffffffffffffffffffffffff16846040518363ffffffff1660e01b815260040161027d9291906104c4565b600060405180830381600087803b15801561029757600080fd5b505af11580156102ab573d6000803e3d6000fd5b50505050505050565b600080fd5b600073ffffffffffffffffffffffffffffffffffffffff82169050919050565b60006102e4826102b9565b9050919050565b6102f4816102d9565b81146102ff57600080fd5b50565b600081359050610311816102eb565b92915050565b6000819050919050565b61032a81610317565b811461033557600080fd5b50565b60008135905061034781610321565b92915050565b60008060408385031215610364576103636102b4565b5b600061037285828601610302565b925050602061038385828601610338565b9150509250929050565b610396816102d9565b82525050565b6103a581610317565b82525050565b60006060820190506103c0600083018661038d565b6103cd602083018561038d565b6103da604083018461039c565b949350505050565b60008115159050919050565b6103f7816103e2565b811461040257600080fd5b50565b600081519050610414816103ee565b92915050565b6000602082840312156104305761042f6102b4565b5b600061043e84828501610405565b91505092915050565b600082825260208201905092915050565b7f5472616e73616374696f6e204661696c65640000000000000000000000000000600082015250565b600061048e601283610447565b915061049982610458565b602082019050919050565b600060208201905081810360008301526104bd81610481565b9050919050565b60006040820190506104d9600083018561038d565b6104e6602083018461039c565b939250505056fea26469706673582212205174d3c68f21278b83ad2bbb67d483acc7d8ca5890b4ae4fabb3e70240be929e64736f6c63430008110033",
  "linkReferences": {},
  "deployedLinkReferences": {}
}